{"project/contracts/FHECounter.sol":{"FHECounter":{"abi":[{"inputs":[],"stateMutability":"nonpayable","type":"constructor"},{"anonymous":false,"inputs":[{"indexed":true,"internalType":"address","name":"user","type":"address"},{"indexed":false,"internalType":"bytes32","name":"handle","type":"bytes32"}],"name":"CounterDecremented","type":"event"},{"anonymous":false,"inputs":[{"indexed":true,"internalType":"address","name":"user","type":"address"},{"indexed":false,"internalType":"bytes32","name":"handle","type":"bytes32"}],"name":"CounterIncremented","type":"event"},{"anonymous":false,"inputs":[{"indexed":false,"internalType":"bytes32","name":"handle","type":"bytes32"}],"name":"CounterInitialized","type":"event"},{"inputs":[{"internalType":"bytes32","name":"a","type":"bytes32"},{"internalType":"bytes32","name":"b","type":"bytes32"},{"internalType":"bytes","name":"proofA","type":"bytes"},{"internalType":"bytes","name":"proofB","type":"bytes"}],"name":"addTwoEncryptedNumbers","outputs":[{"internalType":"bytes32","name":"","type":"bytes32"}],"stateMutability":"pure","type":"function"},{"inputs":[{"internalType":"bytes32","name":"a","type":"bytes32"},{"internalType":"bytes32","name":"b","type":"bytes32"},{"internalType":"bytes","name":"proofA","type":"bytes"},{"internalType":"bytes","name":"proofB","type":"bytes"}],"name":"compareEncryptedNumbers","outputs":[{"internalType":"bytes32","name":"","type":"bytes32"}],"stateMutability":"pure","type":"function"},{"inputs":[{"internalType":"bytes32","name":"inputEuint32","type":"bytes32"},{"internalType":"bytes","name":"inputProof","type":"bytes"}],"name":"decrement","outputs":[],"stateMutability":"nonpayable","type":"function"},{"inputs":[],"name":"getCount","outputs":[{"internalType":"bytes32","name":"","type":"bytes32"}],"stateMutability":"view","type":"function"},{"inputs":[],"name":"getCurrentValue","outputs":[{"internalType":"uint32","name":"","type":"uint32"}],"stateMutability":"view","type":"function"},{"inputs":[],"name":"getDecryptedCount","outputs":[{"internalType":"uint32","name":"","type":"uint32"}],"stateMutability":"view","type":"function"},{"inputs":[],"name":"getOperationCount","outputs":[{"internalType":"uint256","name":"","type":"uint256"}],"stateMutability":"view","type":"function"},{"inputs":[{"internalType":"bytes32","name":"inputEuint32","type":"bytes32"},{"internalType":"bytes","name":"inputProof","type":"bytes"}],"name":"increment","outputs":[],"stateMutability":"nonpayable","type":"function"},{"inputs":[{"internalType":"bytes32","name":"handle","type":"bytes32"}],"name":"mockDecrypt","outputs":[{"internalType":"uint32","name":"","type":"uint32"}],"stateMutability":"view","type":"function"},{"inputs":[],"name":"operationCount","outputs":[{"internalType":"uint256","name":"","type":"uint256"}],"stateMutability":"view","type":"function"},{"inputs":[],"name":"reset","outputs":[],"stateMutability":"nonpayable","type":"function"}],"evm":{"bytecode":{"linkReferences":{},"object":"60806040526001600355348015610014575f5ffd5b505f5f5f6101000a81548163ffffffff021916908363ffffffff16021790555060035f8154809291906100469061010e565b919050555f1b6004819055505f5f9054906101000a900463ffffffff1660025f60045481526020019081526020015f205f6101000a81548163ffffffff021916908363ffffffff1602179055505f6001819055507f3790d5b2bc74cdfd3ab90925c8f0de121ca1921eb220cfefda64c5ef065079e36004546040516100cb919061016d565b60405180910390a1610186565b7f4e487b71000000000000000000000000000000000000000000000000000000005f52601160045260245ffd5b5f819050919050565b5f61011882610105565b91507fffffffffffffffffffffffffffffffffffffffffffffffffffffffffffffffff820361014a576101496100d8565b5b600182019050919050565b5f819050919050565b61016781610155565b82525050565b5f6020820190506101805f83018461015e565b92915050565b6109c4806101935f395ff3fe608060405234801561000f575f5ffd5b50600436106100a7575f3560e01c8063b53cb7231161006f578063b53cb7231461013f578063b763a8361461016f578063b94637371461018d578063d826f88f146101bd578063e055f8f9146101c7578063f5b603d9146101e3576100a7565b80630f76c114146100ab57806323d3c142146100c957806356149adf146100e75780635941195d14610105578063a87d942c14610121575b5f5ffd5b6100b3610213565b6040516100c09190610673565b60405180910390f35b6100d161022a565b6040516100de91906106a4565b60405180910390f35b6100ef610230565b6040516100fc91906106a4565b60405180910390f35b61011f600480360381019061011a9190610759565b610239565b005b61012961035b565b60405161013691906107c5565b60405180910390f35b610159600480360381019061015491906107de565b610364565b6040516101669190610673565b60405180910390f35b61017761038d565b6040516101849190610673565b60405180910390f35b6101a760048036038101906101a29190610809565b6103a4565b6040516101b491906107c5565b60405180910390f35b6101c56103d8565b005b6101e160048036038101906101dc9190610759565b6104a9565b005b6101fd60048036038101906101f89190610809565b610613565b60405161020a91906107c5565b60405180910390f35b5f5f5f9054906101000a900463ffffffff16905090565b60015481565b5f600154905090565b5f835f1c90505f8163ffffffff160361025157600190505b805f5f8282829054906101000a900463ffffffff1661027091906108d9565b92506101000a81548163ffffffff021916908363ffffffff1602179055505f60035f8154809291906102a190610910565b919050555f1b90505f5f9054906101000a900463ffffffff1660025f8381526020019081526020015f205f6101000a81548163ffffffff021916908363ffffffff1602179055508060048190555060015f81548092919061030190610910565b91905055503373ffffffffffffffffffffffffffffffffffffffff167f5068452d890f87d82fddd6de82991884afbc213dd9ea817742264ad922752aef8260405161034c91906107c5565b60405180910390a25050505050565b5f600454905090565b5f60025f8381526020019081526020015f205f9054906101000a900463ffffffff169050919050565b5f5f5f9054906101000a900463ffffffff16905090565b5f5f875f1c90505f875f1c90505f81836103be91906108d9565b90508063ffffffff165f1b93505050509695505050505050565b5f5f5f6101000a81548163ffffffff021916908363ffffffff1602179055505f60035f81548092919061040a90610910565b919050555f1b90505f5f9054906101000a900463ffffffff1660025f8381526020019081526020015f205f6101000a81548163ffffffff021916908363ffffffff1602179055508060048190555060015f81548092919061046a90610910565b91905055507f3790d5b2bc74cdfd3ab90925c8f0de121ca1921eb220cfefda64c5ef065079e38160405161049e91906107c5565b60405180910390a150565b5f835f1c90505f8163ffffffff16036104c157600190505b8063ffffffff165f5f9054906101000a900463ffffffff1663ffffffff161061052657805f5f8282829054906101000a900463ffffffff166105039190610957565b92506101000a81548163ffffffff021916908363ffffffff160217905550610546565b5f5f5f6101000a81548163ffffffff021916908363ffffffff1602179055505b5f60035f81548092919061055990610910565b919050555f1b90505f5f9054906101000a900463ffffffff1660025f8381526020019081526020015f205f6101000a81548163ffffffff021916908363ffffffff1602179055508060048190555060015f8154809291906105b990610910565b91905055503373ffffffffffffffffffffffffffffffffffffffff167f7856dd824ef272206992d27b0a8101c1719afbd9c454710282335ac212cca6028260405161060491906107c5565b60405180910390a25050505050565b5f5f875f1c90505f875f1c90505f8163ffffffff168363ffffffff16101590508061063e575f610641565b60015b60ff165f1b93505050509695505050505050565b5f63ffffffff82169050919050565b61066d81610655565b82525050565b5f6020820190506106865f830184610664565b92915050565b5f819050919050565b61069e8161068c565b82525050565b5f6020820190506106b75f830184610695565b92915050565b5f5ffd5b5f5ffd5b5f819050919050565b6106d7816106c5565b81146106e1575f5ffd5b50565b5f813590506106f2816106ce565b92915050565b5f5ffd5b5f5ffd5b5f5ffd5b5f5f83601f840112610719576107186106f8565b5b8235905067ffffffffffffffff811115610736576107356106fc565b5b60208301915083600182028301111561075257610751610700565b5b9250929050565b5f5f5f604084860312156107705761076f6106bd565b5b5f61077d868287016106e4565b935050602084013567ffffffffffffffff81111561079e5761079d6106c1565b5b6107aa86828701610704565b92509250509250925092565b6107bf816106c5565b82525050565b5f6020820190506107d85f8301846107b6565b92915050565b5f602082840312156107f3576107f26106bd565b5b5f610800848285016106e4565b91505092915050565b5f5f5f5f5f5f60808789031215610823576108226106bd565b5b5f61083089828a016106e4565b965050602061084189828a016106e4565b955050604087013567ffffffffffffffff811115610862576108616106c1565b5b61086e89828a01610704565b9450945050606087013567ffffffffffffffff811115610891576108906106c1565b5b61089d89828a01610704565b92509250509295509295509295565b7f4e487b71000000000000000000000000000000000000000000000000000000005f52601160045260245ffd5b5f6108e382610655565b91506108ee83610655565b9250828201905063ffffffff81111561090a576109096108ac565b5b92915050565b5f61091a8261068c565b91507fffffffffffffffffffffffffffffffffffffffffffffffffffffffffffffffff820361094c5761094b6108ac565b5b600182019050919050565b5f61096182610655565b915061096c83610655565b9250828203905063ffffffff811115610988576109876108ac565b5b9291505056fea2646970667358221220dd2590dc6e904b4ebf3d4d707571ebd8cf19bdad357af67faa9e82673ffef0ff64736f6c634300081c0033","opcodes":"PUSH1 0x80 PUSH1 0x40 MSTORE PUSH1 0x1 PUSH1 0x3 SSTORE CALLVALUE DUP1 ISZERO PUSH2 0x14 JUMPI PUSH0 PUSH0 REVERT JUMPDEST POP PUSH0 PUSH0 PUSH0 PUSH2 0x100 EXP DUP2 SLOAD DUP2 PUSH4 0xFFFFFFFF MUL NOT AND SWAP1 DUP4 PUSH4 0xFFFFFFFF AND MUL OR SWAP1 SSTORE POP PUSH1 0x3 PUSH0 DUP2 SLOAD DUP1 SWAP3 SWAP2 SWAP1 PUSH2 0x46 SWAP1 PUSH2 0x10E JUMP JUMPDEST SWAP2 SWAP1 POP SSTORE PUSH0 SHL PUSH1 0x4 DUP2 SWAP1 SSTORE POP PUSH0 PUSH0 SWAP1 SLOAD SWAP1 PUSH2 0x100 EXP SWAP1 DIV PUSH4 0xFFFFFFFF AND PUSH1 0x2 PUSH0 PUSH1 0x4 SLOAD DUP2 MSTORE PUSH1 0x20 ADD SWAP1 DUP2 MSTORE PUSH1 0x20 ADD PUSH0 KECCAK256 PUSH0 PUSH2 0x100 EXP DUP2 SLOAD DUP2 PUSH4 0xFFFFFFFF MUL NOT AND SWAP1 DUP4 PUSH4 0xFFFFFFFF AND MUL OR SWAP1 SSTORE POP PUSH0 PUSH1 0x1 DUP2 SWAP1 SSTORE POP PUSH32 0x3790D5B2BC74CDFD3AB90925C8F0DE121CA1921EB220CFEFDA64C5EF065079E3 PUSH1 0x4 SLOAD PUSH1 0x40 MLOAD PUSH2 0xCB SWAP2 SWAP1 PUSH2 0x16D JUMP JUMPDEST PUSH1 0x40 MLOAD DUP1 SWAP2 SUB SWAP1 LOG1 PUSH2 0x186 JUMP JUMPDEST PUSH32 0x4E487B7100000000000000000000000000000000000000000000000000000000 PUSH0 MSTORE PUSH1 0x11 PUSH1 0x4 MSTORE PUSH1 0x24 PUSH0 REVERT JUMPDEST PUSH0 DUP2 SWAP1 POP SWAP2 SWAP1 POP JUMP JUMPDEST PUSH0 PUSH2 0x118 DUP3 PUSH2 0x105 JUMP JUMPDEST SWAP2 POP PUSH32 0xFFFFFFFFFFFFFFFFFFFFFFFFFFFFFFFFFFFFFFFFFFFFFFFFFFFFFFFFFFFFFFFF DUP3 SUB PUSH2 0x14A JUMPI PUSH2 0x149 PUSH2 0xD8 JUMP JUMPDEST JUMPDEST PUSH1 0x1 DUP3 ADD SWAP1 POP SWAP2 SWAP1 POP JUMP JUMPDEST PUSH0 DUP2 SWAP1 POP SWAP2 SWAP1 POP JUMP JUMPDEST PUSH2 0x167 DUP2 PUSH2 0x155 JUMP JUMPDEST DUP3 MSTORE POP POP JUMP JUMPDEST PUSH0 PUSH1 0x20 DUP3 ADD SWAP1 POP PUSH2 0x180 PUSH0 DUP4 ADD DUP5 PUSH2 0x15E JUMP JUMPDEST SWAP3 SWAP2 POP POP JUMP JUMPDEST PUSH2 0x9C4 DUP1 PUSH2 0x193 PUSH0 CODECOPY PUSH0 RETURN INVALID PUSH1 0x80 PUSH1 0x40 MSTORE CALLVALUE DUP1 ISZERO PUSH2 0xF JUMPI PUSH0 PUSH0 REVERT JUMPDEST POP PUSH1 0x4 CALLDATASIZE LT PUSH2 0xA7 JUMPI PUSH0 CALLDATALOAD PUSH1 0xE0 SHR DUP1 PUSH4 0xB53CB723 GT PUSH2 0x6F JUMPI DUP1 PUSH4 0xB53CB723 EQ PUSH2 0x13F JUMPI DUP1 PUSH4 0xB763A836 EQ PUSH2 0x16F JUMPI DUP1 PUSH4 0xB9463737 EQ PUSH2 0x18D JUMPI DUP1 PUSH4 0xD826F88F EQ PUSH2 0x1BD JUMPI DUP1 PUSH4 0xE055F8F9 EQ PUSH2 0x1C7 JUMPI DUP1 PUSH4 0xF5B603D9 EQ PUSH2 0x1E3 JUMPI PUSH2 0xA7 JUMP JUMPDEST DUP1 PUSH4 0xF76C114 EQ PUSH2 0xAB JUMPI DUP1 PUSH4 0x23D3C142 EQ PUSH2 0xC9 JUMPI DUP1 PUSH4 0x56149ADF EQ PUSH2 0xE7 JUMPI DUP1 PUSH4 0x5941195D EQ PUSH2 0x105 JUMPI DUP1 PUSH4 0xA87D942C EQ PUSH2 0x121 JUMPI JUMPDEST PUSH0 PUSH0 REVERT JUMPDEST PUSH2 0xB3 PUSH2 0x213 JUMP JUMPDEST PUSH1 0x40 MLOAD PUSH2 0xC0 SWAP2 SWAP1 PUSH2 0x673 JUMP JUMPDEST PUSH1 0x40 MLOAD DUP1 SWAP2 SUB SWAP1 RETURN JUMPDEST PUSH2 0xD1 PUSH2 0x22A JUMP JUMPDEST PUSH1 0x40 MLOAD PUSH2 0xDE SWAP2 SWAP1 PUSH2 0x6A4 JUMP JUMPDEST PUSH1 0x40 MLOAD DUP1 SWAP2 SUB SWAP1 RETURN JUMPDEST PUSH2 0xEF PUSH2 0x230 JUMP JUMPDEST PUSH1 0x40 MLOAD PUSH2 0xFC SWAP2 SWAP1 PUSH2 0x6A4 JUMP JUMPDEST PUSH1 0x40 MLOAD DUP1 SWAP2 SUB SWAP1 RETURN JUMPDEST PUSH2 0x11F PUSH1 0x4 DUP1 CALLDATASIZE SUB DUP2 ADD SWAP1 PUSH2 0x11A SWAP2 SWAP1 PUSH2 0x759 JUMP JUMPDEST PUSH2 0x239 JUMP JUMPDEST STOP JUMPDEST PUSH2 0x129 PUSH2 0x35B JUMP JUMPDEST PUSH1 0x40 MLOAD PUSH2 0x136 SWAP2 SWAP1 PUSH2 0x7C5 JUMP JUMPDEST PUSH1 0x40 MLOAD DUP1 SWAP2 SUB SWAP1 RETURN JUMPDEST PUSH2 0x159 PUSH1 0x4 DUP1 CALLDATASIZE SUB DUP2 ADD SWAP1 PUSH2 0x154 SWAP2 SWAP1 PUSH2 0x7DE JUMP JUMPDEST PUSH2 0x364 JUMP JUMPDEST PUSH1 0x40 MLOAD PUSH2 0x166 SWAP2 SWAP1 PUSH2 0x673 JUMP JUMPDEST PUSH1 0x40 MLOAD DUP1 SWAP2 SUB SWAP1 RETURN JUMPDEST PUSH2 0x177 PUSH2 0x38D JUMP JUMPDEST PUSH1 0x40 MLOAD PUSH2 0x184 SWAP2 SWAP1 PUSH2 0x673 JUMP JUMPDEST PUSH1 0x40 MLOAD DUP1 SWAP2 SUB SWAP1 RETURN JUMPDEST PUSH2 0x1A7 PUSH1 0x4 DUP1 CALLDATASIZE SUB DUP2 ADD SWAP1 PUSH2 0x1A2 SWAP2 SWAP1 PUSH2 0x809 JUMP JUMPDEST PUSH2 0x3A4 JUMP JUMPDEST PUSH1 0x40 MLOAD PUSH2 0x1B4 SWAP2 SWAP1 PUSH2 0x7C5 JUMP JUMPDEST PUSH1 0x40 MLOAD DUP1 SWAP2 SUB SWAP1 RETURN JUMPDEST PUSH2 0x1C5 PUSH2 0x3D8 JUMP JUMPDEST STOP JUMPDEST PUSH2 0x1E1 PUSH1 0x4 DUP1 CALLDATASIZE SUB DUP2 ADD SWAP1 PUSH2 0x1DC SWAP2 SWAP1 PUSH2 0x759 JUMP JUMPDEST PUSH2 0x4A9 JUMP JUMPDEST STOP JUMPDEST PUSH2 0x1FD PUSH1 0x4 DUP1 CALLDATASIZE SUB DUP2 ADD SWAP1 PUSH2 0x1F8 SWAP2 SWAP1 PUSH2 0x809 JUMP JUMPDEST PUSH2 0x613 JUMP JUMPDEST PUSH1 0x40 MLOAD PUSH2 0x20A SWAP2 SWAP1 PUSH2 0x7C5 JUMP JUMPDEST PUSH1 0x40 MLOAD DUP1 SWAP2 SUB SWAP1 RETURN JUMPDEST PUSH0 PUSH0 PUSH0 SWAP1 SLOAD SWAP1 PUSH2 0x100 EXP SWAP1 DIV PUSH4 0xFFFFFFFF AND SWAP1 POP SWAP1 JUMP JUMPDEST PUSH1 0x1 SLOAD DUP2 JUMP JUMPDEST PUSH0 PUSH1 0x1 SLOAD SWAP1 POP SWAP1 JUMP JUMPDEST PUSH0 DUP4 PUSH0 SHR SWAP1 POP PUSH0 DUP2 PUSH4 0xFFFFFFFF AND SUB PUSH2 0x251 JUMPI PUSH1 0x1 SWAP1 POP JUMPDEST DUP1 PUSH0 PUSH0 DUP3 DUP3 DUP3 SWAP1 SLOAD SWAP1 PUSH2 0x100 EXP SWAP1 DIV PUSH4 0xFFFFFFFF AND PUSH2 0x270 SWAP2 SWAP1 PUSH2 0x8D9 JUMP JUMPDEST SWAP3 POP PUSH2 0x100 EXP DUP2 SLOAD DUP2 PUSH4 0xFFFFFFFF MUL NOT AND SWAP1 DUP4 PUSH4 0xFFFFFFFF AND MUL OR SWAP1 SSTORE POP PUSH0 PUSH1 0x3 PUSH0 DUP2 SLOAD DUP1 SWAP3 SWAP2 SWAP1 PUSH2 0x2A1 SWAP1 PUSH2 0x910 JUMP JUMPDEST SWAP2 SWAP1 POP SSTORE PUSH0 SHL SWAP1 POP PUSH0 PUSH0 SWAP1 SLOAD SWAP1 PUSH2 0x100 EXP SWAP1 DIV PUSH4 0xFFFFFFFF AND PUSH1 0x2 PUSH0 DUP4 DUP2 MSTORE PUSH1 0x20 ADD SWAP1 DUP2 MSTORE PUSH1 0x20 ADD PUSH0 KECCAK256 PUSH0 PUSH2 0x100 EXP DUP2 SLOAD DUP2 PUSH4 0xFFFFFFFF MUL NOT AND SWAP1 DUP4 PUSH4 0xFFFFFFFF AND MUL OR SWAP1 SSTORE POP DUP1 PUSH1 0x4 DUP2 SWAP1 SSTORE POP PUSH1 0x1 PUSH0 DUP2 SLOAD DUP1 SWAP3 SWAP2 SWAP1 PUSH2 0x301 SWAP1 PUSH2 0x910 JUMP JUMPDEST SWAP2 SWAP1 POP SSTORE POP CALLER PUSH20 0xFFFFFFFFFFFFFFFFFFFFFFFFFFFFFFFFFFFFFFFF AND PUSH32 0x5068452D890F87D82FDDD6DE82991884AFBC213DD9EA817742264AD922752AEF DUP3 PUSH1 0x40 MLOAD PUSH2 0x34C SWAP2 SWAP1 PUSH2 0x7C5 JUMP JUMPDEST PUSH1 0x40 MLOAD DUP1 SWAP2 SUB SWAP1 LOG2 POP POP POP POP POP JUMP JUMPDEST PUSH0 PUSH1 0x4 SLOAD SWAP1 POP SWAP1 JUMP JUMPDEST PUSH0 PUSH1 0x2 PUSH0 DUP4 DUP2 MSTORE PUSH1 0x20 ADD SWAP1 DUP2 MSTORE PUSH1 0x20 ADD PUSH0 KECCAK256 PUSH0 SWAP1 SLOAD SWAP1 PUSH2 0x100 EXP SWAP1 DIV PUSH4 0xFFFFFFFF AND SWAP1 POP SWAP2 SWAP1 POP JUMP JUMPDEST PUSH0 PUSH0 PUSH0 SWAP1 SLOAD SWAP1 PUSH2 0x100 EXP SWAP1 DIV PUSH4 0xFFFFFFFF AND SWAP1 POP SWAP1 JUMP JUMPDEST PUSH0 PUSH0 DUP8 PUSH0 SHR SWAP1 POP PUSH0 DUP8 PUSH0 SHR SWAP1 POP PUSH0 DUP2 DUP4 PUSH2 0x3BE SWAP2 SWAP1 PUSH2 0x8D9 JUMP JUMPDEST SWAP1 POP DUP1 PUSH4 0xFFFFFFFF AND PUSH0 SHL SWAP4 POP POP POP POP SWAP7 SWAP6 POP POP POP POP POP POP JUMP JUMPDEST PUSH0 PUSH0 PUSH0 PUSH2 0x100 EXP DUP2 SLOAD DUP2 PUSH4 0xFFFFFFFF MUL NOT AND SWAP1 DUP4 PUSH4 0xFFFFFFFF AND MUL OR SWAP1 SSTORE POP PUSH0 PUSH1 0x3 PUSH0 DUP2 SLOAD DUP1 SWAP3 SWAP2 SWAP1 PUSH2 0x40A SWAP1 PUSH2 0x910 JUMP JUMPDEST SWAP2 SWAP1 POP SSTORE PUSH0 SHL SWAP1 POP PUSH0 PUSH0 SWAP1 SLOAD SWAP1 PUSH2 0x100 EXP SWAP1 DIV PUSH4 0xFFFFFFFF AND PUSH1 0x2 PUSH0 DUP4 DUP2 MSTORE PUSH1 0x20 ADD SWAP1 DUP2 MSTORE PUSH1 0x20 ADD PUSH0 KECCAK256 PUSH0 PUSH2 0x100 EXP DUP2 SLOAD DUP2 PUSH4 0xFFFFFFFF MUL NOT AND SWAP1 DUP4 PUSH4 0xFFFFFFFF AND MUL OR SWAP1 SSTORE POP DUP1 PUSH1 0x4 DUP2 SWAP1 SSTORE POP PUSH1 0x1 PUSH0 DUP2 SLOAD DUP1 SWAP3 SWAP2 SWAP1 PUSH2 0x46A SWAP1 PUSH2 0x910 JUMP JUMPDEST SWAP2 SWAP1 POP SSTORE POP PUSH32 0x3790D5B2BC74CDFD3AB90925C8F0DE121CA1921EB220CFEFDA64C5EF065079E3 DUP2 PUSH1 0x40 MLOAD PUSH2 0x49E SWAP2 SWAP1 PUSH2 0x7C5 JUMP JUMPDEST PUSH1 0x40 MLOAD DUP1 SWAP2 SUB SWAP1 LOG1 POP JUMP JUMPDEST PUSH0 DUP4 PUSH0 SHR SWAP1 POP PUSH0 DUP2 PUSH4 0xFFFFFFFF AND SUB PUSH2 0x4C1 JUMPI PUSH1 0x1 SWAP1 POP JUMPDEST DUP1 PUSH4 0xFFFFFFFF AND PUSH0 PUSH0 SWAP1 SLOAD SWAP1 PUSH2 0x100 EXP SWAP1 DIV PUSH4 0xFFFFFFFF AND PUSH4 0xFFFFFFFF AND LT PUSH2 0x526 JUMPI DUP1 PUSH0 PUSH0 DUP3 DUP3 DUP3 SWAP1 SLOAD SWAP1 PUSH2 0x100 EXP SWAP1 DIV PUSH4 0xFFFFFFFF AND PUSH2 0x503 SWAP2 SWAP1 PUSH2 0x957 JUMP JUMPDEST SWAP3 POP PUSH2 0x100 EXP DUP2 SLOAD DUP2 PUSH4 0xFFFFFFFF MUL NOT AND SWAP1 DUP4 PUSH4 0xFFFFFFFF AND MUL OR SWAP1 SSTORE POP PUSH2 0x546 JUMP JUMPDEST PUSH0 PUSH0 PUSH0 PUSH2 0x100 EXP DUP2 SLOAD DUP2 PUSH4 0xFFFFFFFF MUL NOT AND SWAP1 DUP4 PUSH4 0xFFFFFFFF AND MUL OR SWAP1 SSTORE POP JUMPDEST PUSH0 PUSH1 0x3 PUSH0 DUP2 SLOAD DUP1 SWAP3 SWAP2 SWAP1 PUSH2 0x559 SWAP1 PUSH2 0x910 JUMP JUMPDEST SWAP2 SWAP1 POP SSTORE PUSH0 SHL SWAP1 POP PUSH0 PUSH0 SWAP1 SLOAD SWAP1 PUSH2 0x100 EXP SWAP1 DIV PUSH4 0xFFFFFFFF AND PUSH1 0x2 PUSH0 DUP4 DUP2 MSTORE PUSH1 0x20 ADD SWAP1 DUP2 MSTORE PUSH1 0x20 ADD PUSH0 KECCAK256 PUSH0 PUSH2 0x100 EXP DUP2 SLOAD DUP2 PUSH4 0xFFFFFFFF MUL NOT AND SWAP1 DUP4 PUSH4 0xFFFFFFFF AND MUL OR SWAP1 SSTORE POP DUP1 PUSH1 0x4 DUP2 SWAP1 SSTORE POP PUSH1 0x1 PUSH0 DUP2 SLOAD DUP1 SWAP3 SWAP2 SWAP1 PUSH2 0x5B9 SWAP1 PUSH2 0x910 JUMP JUMPDEST SWAP2 SWAP1 POP SSTORE POP CALLER PUSH20 0xFFFFFFFFFFFFFFFFFFFFFFFFFFFFFFFFFFFFFFFF AND PUSH32 0x7856DD824EF272206992D27B0A8101C1719AFBD9C454710282335AC212CCA602 DUP3 PUSH1 0x40 MLOAD PUSH2 0x604 SWAP2 SWAP1 PUSH2 0x7C5 JUMP JUMPDEST PUSH1 0x40 MLOAD DUP1 SWAP2 SUB SWAP1 LOG2 POP POP POP POP POP JUMP JUMPDEST PUSH0 PUSH0 DUP8 PUSH0 SHR SWAP1 POP PUSH0 DUP8 PUSH0 SHR SWAP1 POP PUSH0 DUP2 PUSH4 0xFFFFFFFF AND DUP4 PUSH4 0xFFFFFFFF AND LT ISZERO SWAP1 POP DUP1 PUSH2 0x63E JUMPI PUSH0 PUSH2 0x641 JUMP JUMPDEST PUSH1 0x1 JUMPDEST PUSH1 0xFF AND PUSH0 SHL SWAP4 POP POP POP POP SWAP7 SWAP6 POP POP POP POP POP POP JUMP JUMPDEST PUSH0 PUSH4 0xFFFFFFFF DUP3 AND SWAP1 POP SWAP2 SWAP1 POP JUMP JUMPDEST PUSH2 0x66D DUP2 PUSH2 0x655 JUMP JUMPDEST DUP3 MSTORE POP POP JUMP JUMPDEST PUSH0 PUSH1 0x20 DUP3 ADD SWAP1 POP PUSH2 0x686 PUSH0 DUP4 ADD DUP5 PUSH2 0x664 JUMP JUMPDEST SWAP3 SWAP2 POP POP JUMP JUMPDEST PUSH0 DUP2 SWAP1 POP SWAP2 SWAP1 POP JUMP JUMPDEST PUSH2 0x69E DUP2 PUSH2 0x68C JUMP JUMPDEST DUP3 MSTORE POP POP JUMP JUMPDEST PUSH0 PUSH1 0x20 DUP3 ADD SWAP1 POP PUSH2 0x6B7 PUSH0 DUP4 ADD DUP5 PUSH2 0x695 JUMP JUMPDEST SWAP3 SWAP2 POP POP JUMP JUMPDEST PUSH0 PUSH0 REVERT JUMPDEST PUSH0 PUSH0 REVERT JUMPDEST PUSH0 DUP2 SWAP1 POP SWAP2 SWAP1 POP JUMP JUMPDEST PUSH2 0x6D7 DUP2 PUSH2 0x6C5 JUMP JUMPDEST DUP2 EQ PUSH2 0x6E1 JUMPI PUSH0 PUSH0 REVERT JUMPDEST POP JUMP JUMPDEST PUSH0 DUP2 CALLDATALOAD SWAP1 POP PUSH2 0x6F2 DUP2 PUSH2 0x6CE JUMP JUMPDEST SWAP3 SWAP2 POP POP JUMP JUMPDEST PUSH0 PUSH0 REVERT JUMPDEST PUSH0 PUSH0 REVERT JUMPDEST PUSH0 PUSH0 REVERT JUMPDEST PUSH0 PUSH0 DUP4 PUSH1 0x1F DUP5 ADD SLT PUSH2 0x719 JUMPI PUSH2 0x718 PUSH2 0x6F8 JUMP JUMPDEST JUMPDEST DUP3 CALLDATALOAD SWAP1 POP PUSH8 0xFFFFFFFFFFFFFFFF DUP2 GT ISZERO PUSH2 0x736 JUMPI PUSH2 0x735 PUSH2 0x6FC JUMP JUMPDEST JUMPDEST PUSH1 0x20 DUP4 ADD SWAP2 POP DUP4 PUSH1 0x1 DUP3 MUL DUP4 ADD GT ISZERO PUSH2 0x752 JUMPI PUSH2 0x751 PUSH2 0x700 JUMP JUMPDEST JUMPDEST SWAP3 POP SWAP3 SWAP1 POP JUMP JUMPDEST PUSH0 PUSH0 PUSH0 PUSH1 0x40 DUP5 DUP7 SUB SLT ISZERO PUSH2 0x770 JUMPI PUSH2 0x76F PUSH2 0x6BD JUMP JUMPDEST JUMPDEST PUSH0 PUSH2 0x77D DUP7 DUP3 DUP8 ADD PUSH2 0x6E4 JUMP JUMPDEST SWAP4 POP POP PUSH1 0x20 DUP5 ADD CALLDATALOAD PUSH8 0xFFFFFFFFFFFFFFFF DUP2 GT ISZERO PUSH2 0x79E JUMPI PUSH2 0x79D PUSH2 0x6C1 JUMP JUMPDEST JUMPDEST PUSH2 0x7AA DUP7 DUP3 DUP8 ADD PUSH2 0x704 JUMP JUMPDEST SWAP3 POP SWAP3 POP POP SWAP3 POP SWAP3 POP SWAP3 JUMP JUMPDEST PUSH2 0x7BF DUP2 PUSH2 0x6C5 JUMP JUMPDEST DUP3 MSTORE POP POP JUMP JUMPDEST PUSH0 PUSH1 0x20 DUP3 ADD SWAP1 POP PUSH2 0x7D8 PUSH0 DUP4 ADD DUP5 PUSH2 0x7B6 JUMP JUMPDEST SWAP3 SWAP2 POP POP JUMP JUMPDEST PUSH0 PUSH1 0x20 DUP3 DUP5 SUB SLT ISZERO PUSH2 0x7F3 JUMPI PUSH2 0x7F2 PUSH2 0x6BD JUMP JUMPDEST JUMPDEST PUSH0 PUSH2 0x800 DUP5 DUP3 DUP6 ADD PUSH2 0x6E4 JUMP JUMPDEST SWAP2 POP POP SWAP3 SWAP2 POP POP JUMP JUMPDEST PUSH0 PUSH0 PUSH0 PUSH0 PUSH0 PUSH0 PUSH1 0x80 DUP8 DUP10 SUB SLT ISZERO PUSH2 0x823 JUMPI PUSH2 0x822 PUSH2 0x6BD JUMP JUMPDEST JUMPDEST PUSH0 PUSH2 0x830 DUP10 DUP3 DUP11 ADD PUSH2 0x6E4 JUMP JUMPDEST SWAP7 POP POP PUSH1 0x20 PUSH2 0x841 DUP10 DUP3 DUP11 ADD PUSH2 0x6E4 JUMP JUMPDEST SWAP6 POP POP PUSH1 0x40 DUP8 ADD CALLDATALOAD PUSH8 0xFFFFFFFFFFFFFFFF DUP2 GT ISZERO PUSH2 0x862 JUMPI PUSH2 0x861 PUSH2 0x6C1 JUMP JUMPDEST JUMPDEST PUSH2 0x86E DUP10 DUP3 DUP11 ADD PUSH2 0x704 JUMP JUMPDEST SWAP5 POP SWAP5 POP POP PUSH1 0x60 DUP8 ADD CALLDATALOAD PUSH8 0xFFFFFFFFFFFFFFFF DUP2 GT ISZERO PUSH2 0x891 JUMPI PUSH2 0x890 PUSH2 0x6C1 JUMP JUMPDEST JUMPDEST PUSH2 0x89D DUP10 DUP3 DUP11 ADD PUSH2 0x704 JUMP JUMPDEST SWAP3 POP SWAP3 POP POP SWAP3 SWAP6 POP SWAP3 SWAP6 POP SWAP3 SWAP6 JUMP JUMPDEST PUSH32 0x4E487B7100000000000000000000000000000000000000000000000000000000 PUSH0 MSTORE PUSH1 0x11 PUSH1 0x4 MSTORE PUSH1 0x24 PUSH0 REVERT JUMPDEST PUSH0 PUSH2 0x8E3 DUP3 PUSH2 0x655 JUMP JUMPDEST SWAP2 POP PUSH2 0x8EE DUP4 PUSH2 0x655 JUMP JUMPDEST SWAP3 POP DUP3 DUP3 ADD SWAP1 POP PUSH4 0xFFFFFFFF DUP2 GT ISZERO PUSH2 0x90A JUMPI PUSH2 0x909 PUSH2 0x8AC JUMP JUMPDEST JUMPDEST SWAP3 SWAP2 POP POP JUMP JUMPDEST PUSH0 PUSH2 0x91A DUP3 PUSH2 0x68C JUMP JUMPDEST SWAP2 POP PUSH32 0xFFFFFFFFFFFFFFFFFFFFFFFFFFFFFFFFFFFFFFFFFFFFFFFFFFFFFFFFFFFFFFFF DUP3 SUB PUSH2 0x94C JUMPI PUSH2 0x94B PUSH2 0x8AC JUMP JUMPDEST JUMPDEST PUSH1 0x1 DUP3 ADD SWAP1 POP SWAP2 SWAP1 POP JUMP JUMPDEST PUSH0 PUSH2 0x961 DUP3 PUSH2 0x655 JUMP JUMPDEST SWAP2 POP PUSH2 0x96C DUP4 PUSH2 0x655 JUMP JUMPDEST SWAP3 POP DUP3 DUP3 SUB SWAP1 POP PUSH4 0xFFFFFFFF DUP2 GT ISZERO PUSH2 0x988 JUMPI PUSH2 0x987 PUSH2 0x8AC JUMP JUMPDEST JUMPDEST SWAP3 SWAP2 POP POP JUMP INVALID LOG2 PUSH5 0x6970667358 0x22 SLT KECCAK256 0xDD 0x25 SWAP1 0xDC PUSH15 0x904B4EBF3D4D707571EBD8CF19BDAD CALLDATALOAD PUSH27 0xF67FAA9E82673FFEF0FF64736F6C634300081C0033000000000000 "},"methodIdentifiers":{"addTwoEncryptedNumbers(bytes32,bytes32,bytes,bytes)":"b9463737","compareEncryptedNumbers(bytes32,bytes32,bytes,bytes)":"f5b603d9","decrement(bytes32,bytes)":"e055f8f9","getCount()":"a87d942c","getCurrentValue()":"0f76c114","getDecryptedCount()":"b763a836","getOperationCount()":"56149adf","increment(bytes32,bytes)":"5941195d","mockDecrypt(bytes32)":"b53cb723","operationCount()":"23d3c142","reset()":"d826f88f"}}}}}